:020000040000FA
:10000000000002288C30FE000130FF00803000002C
:10001000000041210000000083120000A1007F08C1
:10002000A0008E30A2000130A3008312000020083F
:10003000A4002108A500FF30A007031CA103250888
:10004000240403199A2804302207A400A501A50D51
:100050002308A5072408FE002508FF0080300000C3
:10006000000041210000000083120000A7007F086B
:10007000A6002208FE002308FF00803000000000D8
:1000800041210000000083120000A900A5007F08A4
:10009000A400A80002302207A400A501A50D230892
:1000A000A5072408FE002508FF008030000000009E
:1000B00041210000000083120000A500AB007F0872
:1000C000AA00A400831200002608AA002708AB009B
:1000D000FF30A607031CA7032B082A040319932843
:1000E0002808FE002908FF008030000000002E21B3
:1000F0000000000083120000AA00240883120313EA
:100100008400831383120000251883172A088312A2
:100110000313800083120000A80A0319A90AA40A85
:100120000319A50A6228063083120000A2070318EB
:10013000A30A152800000000F62808008316A7016E
:10014000A80183122D082C04031DCE288316A901B3
:100150008312851DAD288316A90A83162908013A42
:10016000031DCE2801308312AC00AD018316A90116
:100170008312851DBD288316A90A83162908AA00A3
:100180002A0C0318C52883120512031CC9288312E0
:10019000051683162708FF002808F52883122C0867
:1001A000013A031DF0282D08003A031DF0288312A0
:1001B0008519F0288312AC01AD018316A9018312C1
:1001C000851DE4288316A90A83162908AA002A0C8B
:1001D0000318EC2883120512031CF028831205165D
:1001E0008316A70A0319A80AA12808002830831635
:1001F0008500831285019F0183169F0107308312BA
:100200009900FC308316AB00AC016030AD00AE014C
:10021000DA30AF00B001F230B100B2016630B300A5
:10022000B401B630B500B601BE30B700B801E03059
:10023000B900BA01FE30BB00BC01E630BD00BE0112
:100240009E208316A1007F08A0000730A005A10111
:100250002008FF000030622120290800003A03191D
:100260003529803A03193C2900347E088400831321
:100270007F188317000808007F088A007E08820024
:100280000800003A03194929803A03195329FF014C
:1002900000347E08840083137F1883170008FF0052
:1002A000840A00080800000000003C21FD00FE0F49
:1002B000FF03FF0A000000003C21FC007D08FF0056
:1002C0007C0808008316A3007F08A200A401A501F2
:1002D000003083162502031D6F29083024020318FD
:1002E000882983162208A600260C03187929831270
:1002F0000510031C7D2983120514831285148510B3
:1003000003108316A30CA20CA40A0319A50A6829DA
:100310008312051505110800023400349A340134A3
:100320002C340034023400349C3401342E34003434
:0A03300001340034003400340034BE
:02400E000000B0
:00000001FF
