:020000040000FA
:100000000000332A083083168500831285019F0182
:1000100083169F010730831299006F218312A1007C
:100020007F08A000831205120F3083122005A20062
:10003000A3012208031D2128FC30FF0000306523A6
:100040009E2883122208013A031D2F282308003A14
:10005000031D2F286030FF00003065239E28831287
:100060002208023A031D3D282308003A031D3D28BB
:10007000DA30FF00003065239E2883122208033AFD
:10008000031D4B282308003A031D4B28F230FF00C4
:10009000003065239E2883122208043A031D592844
:1000A0002308003A031D59286630FF0000306523FD
:1000B0009E2883122208053A031D67282308003A68
:1000C000031D6728B630FF00003065239E28831289
:1000D0002208063A031D75282308003A031D7528D7
:1000E000BE30FF00003065239E2883122208073AA5
:1000F000031D83282308003A031D8328E030FF00F6
:10010000003065239E2883122208083A031D912897
:100110002308003A031D9128FE30FF0000306523BC
:100120009E2883122208093A031D9E282308003ABC
:10013000031D9E28E630FF0000306523831205165C
:10014000F0308312A005A1012008031DAC28FC306B
:10015000FF0000306523292983122008103A031D6F
:10016000BA282108003A031DBA286030FF00003089
:100170006523292983122008203A031DC828210855
:10018000003A031DC828DA30FF0000306523292912
:1001900083122008303A031DD6282108003A031D97
:1001A000D628F230FF000030652329298312200869
:1001B000403A031DE4282108003A031DE428663074
:1001C000FF0000306523292983122008503A031DBF
:1001D000F2282108003A031DF228B630FF00003053
:1001E0006523292983122008603A031D002921086C
:1001F000003A031D0029BE30FF0000306523292985
:1002000083122008703A031D0E292108003A031DAD
:100210000E29E030FF0000306523292983122008D1
:10022000803A031D1C292108003A031D1C29FE30B9
:10023000FF0000306523292983122008903A031D0E
:1002400029292108003A031D2929E630FF00003042
:100250006523023083124B058312A000A101200800
:10026000023A031D0D282108003A031D0D28013014
:100270008312CB051130CC05FF308316A000A101FD
:10028000FF30A200A301FF30A400A501FF30A600AB
:10029000A701FF30A800A901FF30AA00AB01FF3081
:1002A000AC00AD01FF30AE00AF01FF30B000B101D6
:1002B000FF30B200B301FF30B400B501FF30B6002B
:1002C000B701FF30B800B901FF30BA00BB01FF3001
:1002D000BC00BD01FF30BC00BD010D280800831229
:1002E000A901AA010F3083122905AB00AC0100302F
:1002F0002C02031D7D2909302B0203188429831247
:10030000A90A0319AA0AA929F03083122905AB000A
:10031000AC012B0E0F39AD002C0EAE00F039AD0440
:10032000AE0600302E02031D972909302D02031856
:10033000A629103083122907AB00AC01AC0D2A08A6
:10034000AC07F0302B05A900AA01A9298312A90145
:10035000AA0183124B18EA298312AB018312851D6F
:10036000B3298312AB0A83122B08013A031DEA2931
:100370002908FF002A08CF228312AC007F08AB00B7
:10038000013A031DEA292C08003A031DEA298312C9
:100390004B1402304B058312AB00AC012B08023A20
:1003A000031DE0292C08003A031DE0298312851261
:1003B00001308312C900CA019930FF000030322A8F
:1003C000831285128312C901CA0183122908FF0012
:1003D0002A08322A013083124B058312AB00AC018C
:1003E0002B08013A031DFE292C08003A031DFE29A3
:1003F00083128519FE2983124B10CC018312C50A82
:100400000319C60A46084504031D0A2A8312C70AAF
:100410000319C80A83124708013A031D72294808C4
:10042000003A031D7229C701C80183124908013A25
:10043000031D72294A08003A031D72298312AB0179
:100440008312851E252A8312AB0A83122B09AB0067
:100450002B0C03182D2A83128512031C312A8312B8
:100460008516722908008F30FE000330FF008030AF
:100470000000000044230000000083120000BA00C6
:100480007F08B9009130BB000330BC00831200002C
:100490003908BD003A08BE00FF30B907031CBA0393
:1004A0003E083D040319CB2A04303B07BD00BE01C2
:1004B000BE0D3C08BE073D08FE003E08FF00803030
:1004C0000000000044230000000083120000C00070
:1004D0007F08BF003B08FE003C08FF0080300000A2
:1004E000000044230000000083120000C200BE0090
:1004F0007F08BD00C10002303B07BD00BE01BE0D3C
:100500003C08BE073D08FE003E08FF0080300000AA
:10051000000044230000000083120000BE00C4005D
:100520007F08C300BD00831200003F08C3004008DD
:10053000C400FF30BF07031CC00344084304031971
:10054000C42A4108FE004208FF008030000000007D
:1005500031230000000083120000C3003D08831215
:10056000031384008313831200003E18831743088B
:1005700083120313800083120000C10A0319C20A08
:10058000BD0A0319BE0A932A063083120000BB0776
:100590000318BC0A462A0000000002280800831243
:1005A000B0007F08AF00B101B201B301B401003067
:1005B00083123202031DDE2A1030310203182B2B66
:1005C00083123308A03EB5000030B600340803188B
:1005D000340FB6073508831284008313831236184C
:1005E0008317831200088312B7008312840A00085D
:1005F0008312B8003708FF3A031D152B3808003A5C
:10060000031D152B350883128400831383123618BB
:1006100083172F0883128000840A83123008831204
:1006200080000130FF000030302B83122F08370686
:10063000031D222B30083806031D222B0030FF003B
:100640000030302B02308312B3070318B40AB10A0A
:100650000319B20AD72A8312CB140130FF000030ED
:100660000800003A0319382B803A03193F2B003455
:100670007E08840083137F188317000808007F0812
:100680008A007E0882000800003A03194C2B803A49
:100690000319562BFF0100347E08840083137F1852
:1006A00083170008FF00840A00080800000000000B
:1006B0003F23FD00FE0FFF03FF0A000000003F2361
:1006C000FC007D08FF007C0808008312A5007F085D
:1006D000A400A601A701003083122702031D722B7C
:1006E0000830260203188B2B83122408A800280C3C
:1006F00003187C2B83120510031C802B8312051416
:1007000083128514851003108312A50CA40CA60A6D
:100710000319A70A6B2B831205150511080006346F
:100720000034D53403344534003402340034D73433
:1007300003344734003402340034D93403344934A8
:10074000003402340034DB3403344B3400340234DC
:100750000034B5340334A034003420340034DD34A4
:1007600003344D34003401340034FF340034FF349A
:100770000034FF340034FF340034FF340034FF34DD
:100780000034FF340034FF340034FF340034FF34CD
:100790000034FF340034FF340034FF340034FF34BD
:1007A0000034FF340034FF340034003400340034AB
:0C07B00000340034003400340034003405
:02400E000000B0
:00000001FF
