:020000040000FA
:100000000000342A083083168500203083128500D2
:100010009F0183169F01073083129900702183127C
:10002000A1007F08A000831205120F308312200563
:10003000A200A3012208031D2228FC30FF0000308B
:1000400066239F2883122208013A031D30282308C3
:10005000003A031D30286030FF00003066239F28DF
:1000600083122208023A031D3E282308003A031D8A
:100070003E28DA30FF00003066239F2883122208D2
:10008000033A031D4C282308003A031D4C28F23084
:10009000FF00003066239F2883122208043A031DC4
:1000A0005A282308003A031D5A286630FF00003002
:1000B00066239F2883122208053A031D6828230817
:1000C000003A031D6828B630FF00003066239F28E1
:1000D00083122208063A031D76282308003A031DDE
:1000E0007628BE30FF00003066239F288312220846
:1000F000073A031D84282308003A031D8428E030B2
:10010000FF00003066239F2883122208083A031D4F
:1001100092282308003A031D9228FE30FF00003089
:1001200066239F2883122208093A031D9F2823086B
:10013000003A031D9F28E630FF000030662383123B
:100140000516F0308312A005A1012008031DAD287B
:10015000FC30FF00003066232A2983122008103A61
:10016000031DBB282108003A031DBB286030FF0097
:10017000003066232A2983122008203A031DC9284B
:100180002108003A031DC928DA30FF000030662339
:100190002A2983122008303A031DD7282108003A63
:1001A000031DD728F230FF00003066232A2983126E
:1001B0002008403A031DE5282108003A031DE528E0
:1001C0006630FF00003066232A2983122008503A47
:1001D000031DF3282108003A031DF328B630FF0061
:1001E000003066232A2983122008603A031D012962
:1001F0002108003A031D0129BE30FF0000306623AC
:100200002A2983122008703A031D0F292108003A79
:10021000031D0F29E030FF00003066232A298312D6
:100220002008803A031D1D292108003A031D1D29BD
:10023000FE30FF00003066232A2983122008903AFE
:10024000031D2A292108003A031D2A29E630FF0050
:1002500000306623023083124B058312A000A101F7
:100260002008023A031D0E282108003A031D0E281B
:1002700001308312CB051130CC05FF308316A0006E
:10028000A101FF30A200A301FF30A400A501FF30AF
:10029000A600A701FF30A800A901FF30AA00AB010A
:1002A000FF30AC00AD01FF30AE00AF01FF30B00059
:1002B000B101FF30B200B301FF30B400B501FF302F
:1002C000B600B701FF30B800B901FF30BA00BB017A
:1002D000FF30BC00BD01FF30BC00BD010E2808008E
:1002E0008312A901AA010F3083122905AB00AC01CA
:1002F00000302C02031D7E2909302B0203188529AA
:100300008312A90A0319AA0AAA29F030831229051F
:10031000AB00AC012B0E0F39AD002C0EAE00F03946
:10032000AD04AE0600302E02031D982909302D02BF
:100330000318A729103083122907AB00AC01AC0DBC
:100340002A08AC07F0302B05A900AA01AA298312BC
:10035000A901AA0183124B18EB298312AB01831266
:10036000851DB4298312AB0A83122B08013A031DA1
:10037000EB292908FF002A08D0228312AC007F084D
:10038000AB00013A031DEB292C08003A031DEB29B1
:1003900083124B1402304B058312AB00AC012B08C7
:1003A000023A031DE1292C08003A031DE1298312BA
:1003B000851601308312C900CA019930FF00003050
:1003C000332A831285168312C901CA0183122908B0
:1003D000FF002A08332A013083124B058312AB0039
:1003E000AC012B08013A031DFF292C08003A031D1C
:1003F000FF2983128519FF2983124B10CC01831228
:10040000C50A0319C60A46084504031D0B2A8312B0
:10041000C70A0319C80A83124708013A031D732942
:100420004808003A031D7329C701C801831249080F
:10043000013A031D73294A08003A031D73298312E8
:10044000AB018312851E262A8312AB0A83122B0965
:10045000AB002B0C03182E2A83128512031C322AA0
:1004600083128516732908009030FE000330FF00C8
:1004700080300000000045230000000083120000CF
:10048000BA007F08B9009230BB000330BC00831271
:1004900000003908BD003A08BE00FF30B907031C50
:1004A000BA033E083D040319CC2A04303B07BD00C3
:1004B000BE01BE0D3C08BE073D08FE003E08FF0021
:1004C000803000000000452300000000831200007F
:1004D000C0007F08BF003B08FE003C08FF008030E2
:1004E0000000000045230000000083120000C2004D
:1004F000BE007F08BD00C10002303B07BD00BE0149
:10050000BE0D3C08BE073D08FE003E08FF008030DF
:100510000000000045230000000083120000BE0020
:10052000C4007F08C300BD00831200003F08C30061
:100530004008C400FF30BF07031CC0034408430445
:100540000319C52A4108FE004208FF008030000060
:10055000000032230000000083120000C3003D08A9
:100560008312031384008313831200003E18831741
:10057000430883120313800083120000C10A031989
:10058000C20ABD0A0319BE0A942A0630831200006B
:10059000BB070318BC0A472A000000000228080015
:1005A0008312B0007F08AF00B101B201B301B40102
:1005B000003083123202031DDF2A1030310203188B
:1005C0002C2B83123308A03EB5000030B60034084F
:1005D0000318340FB607350883128400831383127F
:1005E00036188317831200088312B7008312840A17
:1005F00000088312B8003708FF3A031D162B38088D
:10060000003A031D162B35088312840083138312CE
:10061000361883172F0883128000840A831230084B
:10062000831280000130FF000030312B83122F082D
:100630003706031D232B30083806031D232B0030FB
:10064000FF000030312B02308312B3070318B40AC5
:10065000B10A0319B20AD82A8312CB140130FF0061
:1006600000300800003A0319392B803A0319402B57
:1006700000347E08840083137F1883170008080065
:100680007F088A007E0882000800003A03194D2B7B
:10069000803A0319572BFF0100347E08840083132E
:1006A0007F1883170008FF00840A00080800000074
:1006B00000004023FD00FE0FFF03FF0A00000000C2
:1006C0004023FC007D08FF007C0808008312A50081
:1006D0007F08A400A601A701003083122702031D92
:1006E000732B0830260203188C2B83122408A800D1
:1006F000280C03187D2B83120510031C812B8312F9
:10070000051483128514851003108312A50CA40C04
:10071000A60A0319A70A6C2B8312051505110800F8
:1007200006340034D6340334453400340234003403
:10073000D83403344734003402340034DA34033418
:100740004934003402340034DC3403344B34003494
:1007500002340034B6340334A0340034203400347E
:10076000DE3403344D34003401340034FF340034BB
:10077000FF340034FF340034FF340034FF340034DD
:10078000FF340034FF340034FF340034FF340034CD
:10079000FF340034FF340034FF340034FF340034BD
:1007A000FF340034FF340034FF34003400340034AC
:0E07B0000034003400340034003400340034CF
:02400E000000B0
:00000001FF
