:020000040000FA
:100000000000B228283083168500831285019F01E5
:1000100083169F01073083129900FC308312C000C1
:10002000C1016030C200C301DA30C400C501F23042
:10003000C600C7016630C800C901B630CA00CB018E
:10004000BE30CC00CD01E030CE00CF01FE30D0007C
:10005000D101E630D200D301E5218312A1007F084F
:10006000A0000F30A005A1012008FD000030FE0017
:100070000230FF0000306D228312A1007F08A00033
:10008000403EA00021080318210F003EA1002008D7
:1000900083128400831383122118831783120008AC
:1000A0008312A2008312840A00088312A30022088C
:1000B000FF002308502383128514851085148510B2
:1000C0008514851085148510851485108514851078
:1000D0008514851085148510851485108514851068
:1000E0008514851085148510851485108514851058
:1000F0008514851085148510851485108514851048
:100100008514851085148510851485108514851037
:100110008514851085148510851485108514851027
:100120008514851085148510851485108514851017
:100130008514851085148510851485108514851007
:1001400085148510851485108514851085148510F7
:1001500085148510851485108514851085148510E7
:100160002C2808007A30FE000330FF0080300000A9
:10017000000004230000000083120000E5007F0857
:10018000E4007C30E6000330E700831200006408DE
:10019000E8006508E900FF30E407031CE50369088F
:1001A000680403194A2904306607E800E901E90DEB
:1001B0006708E9076808FE006908FF008030000052
:1001C000000004230000000083120000EB007F0801
:1001D000EA006608FE006708FF00803000000000AB
:1001E00004230000000083120000ED00E9007F08F6
:1001F000E800EC0002306607E800E901E90D670855
:10020000E9076808FE006908FF0080300000000070
:1002100004230000000083120000E900EF007F08C3
:10022000EE00E800831200006A08EE006B08EF00A1
:10023000FF30EA07031CEB036F086E040319432920
:100240006C08FE006D08FF00803000000000F12205
:100250000000000083120000EE0068088312031300
:100260008400831383120000691883176E088312B9
:100270000313800083120000EC0A0319ED0AE80A58
:100280000319E90A1229063083120000E607031851
:10029000E70AC52800000000022808008312B10008
:1002A0007F08B000310EF039B300300EB2000F39C4
:1002B000B304B206B401B501B601B7010030831230
:1002C0003502031D6529083034020318DF29831223
:1002D0003608543EB8000030B90037080318370F0D
:1002E000B9073808831284008313831239188317DF
:1002F000831200088312BA008312840A0008831252
:10030000BB00F0303A05BC00BD013C08031DA1292B
:1003100032083A04BE0033083B04BF003808831299
:10032000840083138312391883173E0883128000D8
:10033000840A83123F08831280000130FF000030DE
:10034000E4290F3083123A05BE00BF013E08031DA9
:10035000C0293008BA043108BB043808831284006D
:1003600083138312391883173A0883128000840A92
:1003700083123B08831280000130FF000030E42923
:10038000831232083C06031DC92933083D060319B0
:10039000D229831230083E06031DD62931083F06B4
:1003A000031DD6290030FF000030E42902308312FB
:1003B000B6070318B70AB40A0319B50A5E298316EB
:1003C000B1140130FF00003008008312A901AA0116
:1003D0008312A90A0319AA0A83163118572A83120D
:1003E000AB018312851DF6298312AB0A83122B08F9
:1003F000013A031D572A00302A02031D012A6430E6
:1004000029020318572A83122908FF002A084E21BF
:100410008312AC007F08AB00013A031D572A2C0859
:10042000003A031D572A83163114311C1B2A6330EE
:10043000FF0000306C2A013083122905AB00AC01AB
:100440002B08FD000030FE000230FF0000306D225E
:100450008312AE007F08AD002B07AD002C080318F7
:100460002C0FAE072B08FD002C08FE000430FF0007
:1004700000306D228312AF007F08AD072F080318EC
:100480002F0FAE072B08FD002C08FE000830FF00E0
:1004900000306D228312AC007F08AB00AD072C0842
:1004A00003182C0FAE072D08FF002E086C2A013010
:1004B000831631058312AB00AC012B08013A031DF2
:1004C000E8292C08003A031DE82983128519E82938
:1004D00083163110B201E829080083160000A1003C
:1004E0007F0883160000A40083160000A0007E0889
:1004F000A3007D0883160000A60083160000A2005A
:10050000210883160000A500831600002308831627
:100510000000A70083160000240883160000A00036
:1005200083160000260883160000A100FF002008A3
:100530000000000025230000000083160000A10039
:100540007F08A00083160000A80083160000210881
:1005500083160000A90083160000A0008316000087
:10056000240883160000A1008316000027088316C4
:100570000000A200FF002108000000002523000069
:1005800000007F0883160000A100831600002508E4
:1005900083160000A20083160000260883160000C0
:1005A000A300FF0022080000000025230000000037
:1005B0007F0883160000A200A1072108A0072008D9
:1005C00083160000A900280883160000A0008316E7
:1005D0000000290883160000A1002008FF00210860
:1005E0000800003A0319F82A803A0319FF2A003458
:1005F0007E08840083137F188317000808007F0893
:100600008A007E0882000800003A03190C2B803A09
:100610000319162BFF0100347E08840083137F1812
:1006200083170008FF00840A00080800000000008B
:10063000FF22FD00FE0FFF03FF0A00000000FF2263
:10064000FC007D08FF007C08080083160000AA005B
:100650007F08AB00AC01AD01AE010830831600008D
:100660002E0203184A2B0310AC0DAD0DAA1F412B0F
:100670000030B0002B08AF00AC0730080318300F73
:10068000AD07831600002A08AF0003102F0DAA0043
:10069000AE0A2D2B831600002C08FF002D08080041
:1006A0008312A5007F08A400A601A70100308312D1
:1006B0002702031D5D2B083026020318762B8312B8
:1006C0002408A800280C0318672B83120510031CAC
:1006D0006B2B83120514831285148510031083126B
:1006E000A50CA40CA60A0319A70A562B83120515FC
:1006F00005110800033400349E340334B13400344F
:10070000023400348E340334543400341034003452
:10071000A0340334B33400340134003400340034E2
:100720000034003400340034003400340034003429
:100730000034003400340034003400340034003419
:02074000003483
:02400E000000B0
:00000001FF
