:020000040000FA
:10000000000002283430FE000130FF008030000084
:100010000000E9200000000083120000A1007F081A
:10002000A0003630A2000130A30083120000200897
:10003000A4002108A500FF30A007031CA103250888
:10004000240403199A2804302207A400A501A50D51
:100050002308A5072408FE002508FF0080300000C3
:100060000000E9200000000083120000A7007F08C4
:10007000A6002208FE002308FF00803000000000D8
:10008000E9200000000083120000A900A5007F08FD
:10009000A400A80002302207A400A501A50D230892
:1000A000A5072408FE002508FF008030000000009E
:1000B000E9200000000083120000A500AB007F08CB
:1000C000AA00A400831200002608AA002708AB009B
:1000D000FF30A607031CA7032B082A040319932843
:1000E0002808FE002908FF00803000000000D6200C
:1000F0000000000083120000AA00240883120313EA
:100100008400831383120000251883172A088312A2
:100110000313800083120000A80A0319A90AA40A85
:100120000319A50A6228063083120000A2070318EB
:10013000A30A1528000000009E2808000830831636
:1001400085001030831285009F0183169F010730C0
:1001500083129900FC308316A700A8016030A90023
:10016000AA01DA30AB00AC01F230AD00AE0166306E
:10017000AF00B001B630B100B201BE30B300B4017F
:10018000E030B500B601FE30B700B801E630B90086
:10019000BA0133088316A000831634088316A10021
:1001A0002008FF0021080A21D4280800003A03197A
:1001B000DD28803A0319E42800347E088400831384
:1001C0007F188317000808007F088A007E088200D5
:1001D0000800003A0319F128803A0319FB28FF01AF
:1001E00000347E08840083137F1883170008FF0003
:1001F000840A0008080000000000E420FD00FE0F53
:10020000FF03FF0A00000000E420FC007D08FF005F
:100210007C0808008316A3007F08A200A401A501A2
:10022000003083162502031D172908302402031805
:10023000302983162208A600260C031821298312D0
:100240000510031C252983120514831285148510BB
:1002500003108316A30CA20CA40A0319A50A1029E3
:100260008312051505110800013400343C340134B3
:0A027000BB340034013400340034C4
:02400E000000B0
:00000001FF
